:020000040800F2
:10000000B8E7002069020008ED390008F72E000863
:1000100079370008E709000895BF000800000000D4
:100020000000000000000000000000006D8B0008D0
:100030009928000800000000630500080DA70008CB
:10004000830200088302000883020008830200087C
:10005000830200088302000883020008830200086C
:10006000830200088302000883020008830200085C
:1000700083020008830200081120000839200008CC
:100080008302000871200008830200088302000830
:10009000ED0A0008830200088302000883020008BA
:1000A000B5A8000883020008830200088302000844
:1000B000FDA80008B5AA0008830200088302000812
:1000C00083020008830200088302000883020008FC
:1000D000830200088302000861B6000821B8000806
:1000E00083020008830200088302000883020008DC
:1000F00083020008830200088302000883020008CC
:1001000083020008830200088302000883020008BB
:100110004DB400088302000883020008830200082F
:100120009920000883020008830200088302000867
:10013000830200088302000883020008830200088B
:10014000290D0008830200088302000883020008CA
:100150008302000883020008052100080DBB000887
:10016000830200088302000883020008830200085B
:10017000830200088302000883020008830200084B
:10018000830200088302000800F002F800F05CF827
:100190000AA090E8000C82448344AAF10107DA45E2
:1001A00001D100F051F8AFF2090EBAE80F0013F0D8
:1001B000010F18BFFB1A43F0010318475CE200006F
:1001C0007CE200000A444FF0000C10F8013B13F0F1
:1001D000070408BF10F8014B1D1108BF10F8015BA0
:1001E000641E05D010F8016B641E01F8016BF9D193
:1001F00013F0080F1EBF10F8014BAD1C0C1B09D1EA
:100200006D1E58BF01F801CBFAD505E014F8016B5B
:1002100001F8016B6D1EF9D59142D6D370470000ED
:100220000023002400250026103A28BF78C1FBD8FF
:10023000520728BF30C148BF0B6070471FB50DF093
:10024000D9FF1FBD10B510BD00F03EF91146FFF7F4
:10025000F5FF0DF01DFA00F05CF903B4FFF7F2FFB3
:1002600003BC0CF0E5FA0000094880470948004744
:10027000FEE7FEE7FEE7FEE7FEE7FEE7FEE7FEE756
:10028000FEE7FEE704480549054A064B70470000B3
:1002900029A7000889010008B8D90020B8E7002084
:1002A000B8DB0020B8DB002072B6704762B670473A
:1002B000EFF3108072B6704780F31088704730BF3C
:1002C000704720BF7047B0FA80F0704790FAA0F0F6
:1002D000B0FA80F0704790FAA0F07047704730B5E0
:1002E00005460B462A4613F8014B12F8010B08B1DC
:1002F000A042F8D01CB1002802D06D1CF1E72846BE
:1003000030BD10B5431C02E010F8011B71B181072C
:10031000FAD14FF0013202C88C1A8C4314EAC21190
:10032000F9D0C01A0A0603D0C01E10BDC01A10BDF5
:100330000A0401D0801E10BD0902FCD0401E10BD71
:10034000032A40F2308010F0030C00F0158011F801
:10035000013BBCF1020F624498BF11F801CB00F8D9
:10036000013B38BF11F8013BA2F1040298BF00F82D
:1003700001CB38BF00F8013B11F0030300F02580EA
:10038000083AC0F0088051F8043B083A51F804CB11
:10039000A0E80810F5E7121D5CBF51F8043B40F8D7
:1003A000043BAFF30080D20724BF11F8013B11F8E2
:1003B00001CB48BF11F8012B24BF00F8013B00F826
:1003C00001CB48BF00F8012B704710B5203AC0F0B0
:1003D0000B80B1E81850203AA0E81850B1E8185046
:1003E000A0E81850BFF4F5AF5FEA027C24BFB1E883
:1003F0001850A0E8185044BF18C918C0BDE81040F4
:100400005FEA827C24BF51F8043B40F8043B08BFFC
:100410007047D20728BF31F8023B48BF11F8012BC3
:1004200028BF20F8023B48BF00F8012B70474FF06F
:1004300000020429C0F0128010F0030C00F01B80B1
:10044000CCF1040CBCF1020F18BF00F8012BA8BFBF
:1004500020F8022BA1EB0C0100F00DB85FEAC17C83
:1004600024BF00F8012B00F8012B48BF00F8012B36
:1004700070474FF0000200B5134694469646203967
:1004800022BFA0E80C50A0E80C50B1F12001BFF44D
:10049000F7AF090728BFA0E80C5048BF0CC05DF8B3
:1004A00004EB890028BF40F8042B08BF704748BF01
:1004B00020F8022B11F0804F18BF00F8012B704775
:1004C0007047704770477047754600F02BF8AE468E
:1004D00005006946534620F00700854618B020B550
:1004E000FFF7D0FEBDE820404FF000064FF00007B8
:1004F0004FF000084FF0000B21F00701AC46ACE8CC
:10050000C009ACE8C009ACE8C009ACE8C0098D4638
:10051000704710B50446AFF300802046BDE8104098
:10052000FFF79BBE0048704754D9002022484FF681
:10053000FF710170002080F309882048016881F371
:1005400008881F484FF08051016062B6FEE71C48E2
:100550004FF080510160704719484FF080510160A1
:10056000704772B6EFF3098050B11EF0100F08BF4C
:1005700020ED108A203880E8F00F124909680860E1
:1005800000B5114880475DF804EB104810490A781F
:1005900002700C480F490A680260106890E8F00F7A
:1005A00020301EF0100F08BFB0EC108A80F30988CD
:1005B0004EF0040E62B6704722ED00E0F402002017
:1005C00004ED00E0EC020020814D00087A020020DA
:1005D0007B020020F002002000B58DB00121042034
:1005E00007F056FE0121080207F082FE0E200B9054
:1005F00003208DF8300000208DF833000BA920482F
:1006000002F0BCFA002007900A9009904FF4803065
:10061000089007A800F044F80020019001208DF810
:1006200008008DF8090000200390059003208DF844
:10063000180001A9134800F061F8072301220B21DB
:10064000104800F085F8072302220C210D4800F025
:100650007FF8072303220D210A4800F079F80121D1
:10066000084800F040F80121064800F031F8012167
:10067000044800F009F8034800F0C6F80DB000BDCA
:10068000000802400020014021B1826842F00102CE
:10069000826003E0826822F00102826070470000FD
:1006A0000021084A1168084A1140D0E900231A4382
:1006B00083681A43C3681A431143044AC2F80413F7
:1006C0007047000004230140E030FCFF002001409F
:1006D00021B1826842F48072826003E0826822F471
:1006E00080728260704721B1826842F40072826039
:1006F00003E0826822F400728260704730B50246DF
:10070000002000235068104C20400D790C6844EA0A
:1007100005242043506090680C4C2040D1E90354DC
:100720002C438D682C434D7944EA45042043906066
:10073000D06A20F470000C7D641EE4B2234340EACA
:100740000350D06230BD0000FFFEFFFCFDF7FFC08C
:10075000F0B504460D4600200021092D11DDE068AA
:10076000A5F10A0606EB4607072606FA07F18843B5
:10077000A5F10A0606EB460603FA06F10843E06017
:100780000CE0206905EB4507072606FA07F18843C8
:1007900005EB450603FA06F108432061072A0FDA44
:1007A000606B561E06EB86071F2606FA07F1884384
:1007B000561E06EB860605FA06F10843606322E042
:1007C0000D2A0FDA206BD61F06EB86071F2606FAC6
:1007D00007F18843D61F06EB860605FA06F10843A3
:1007E000206310E0E06AA2F10D0606EB86071F26E3
:1007F00006FA07F18843A2F10D0606EB860605FA14
:1008000006F10843E062F0BD816841F080418160FB
:100810007047000070B53F480078801E81B23E48A6
:1008200000F0A6FD0446E5B2260A3A480078801E8C
:100830003949085CA84234D136480078401E085C2B
:10084000B0422ED108464078042817D006DC012893
:100850000BD002280CD003281CD10CE0052810D0A6
:10086000062811D0102815D111E007F0C5FD17E0BA
:1008700007F040FE14E007F0DBFE11E007F036FF62
:100880000EE007F0AFFF0BE007F0F0FF08E008F024
:100890003BF805E02049487804210CF077FD00BFC3
:1008A00036E01D48407804281DD006DC01280BD016
:1008B00002280ED003282AD110E0052818D00628D7
:1008C0001BD0102823D11DE0082101200CF05EFD73
:1008D0001DE0082102200CF059FD18E0082103203A
:1008E0000CF054FD13E0082104200CF04FFD0EE045
:1008F000082105200CF04AFD09E0082106200CF033
:1009000045FD04E0082110200CF040FD00BF00BFB1
:1009100070BD000002000020BA76002000BF4AE04F
:1009200025484079002840D12348407870B92348B1
:10093000006810B12248407D40B100201E49087275
:100940008870012088711FA00CF08AFF1A48407837
:1009500001282AD11948001F006810B11848807D6D
:1009600030B1012014498870C87118A00CF078FFCC
:1009700012481030006848B91648007830B9002095
:100980000D49487001200872C87148720B480C303C
:10099000006850B90F480078012806D100200649A8
:1009A000487001200872C871C872052300221146E0
:1009B00010460CF03DFCB3E7249F00201482424215
:1009C000209D0020C6F4B6AF00000000CDA3D6B92C
:1009D00000000000AD0100201FB5684607F098FC3C
:1009E000019804B010BD00BFFEE700002DE9F04102
:1009F0008AB004460D4616461F46DDF840800121A8
:100A0000084607F045FC0121480607F051FC4FF469
:100A1000C050089002208DF8240000208DF8260098
:100A200003208DF8250001208DF8270008A92D4806
:100A300002F0A4F809220B212A4802F0E7F8092263
:100A40000C21284802F0E2F800208DF81A008DF8F9
:100A50001B008DF81C0001208DF81D0000208DF872
:100A60001E008DF81F008DF816808DF817408DF848
:100A700018608DF81950ADF8147005A91A4800F0E7
:100A800040FA00208DF80E008DF80F0001208DF83F
:100A900010000020ADF80400ADF80600ADF8080025
:100AA000ADF80A00ADF80C0001208DF8110001A886
:100AB00000F09AF9012202210B4800F019FA1420E3
:100AC0008DF8000001208DF8010000208DF8020053
:100AD00001208DF80300684602F08AFF00200AB06A
:100AE000BDE8F081000002400064004010B5002421
:100AF0002C4A00212C4800F08EFA2A4800680C2865
:100B000029D100BF0BE02748C07A80F0FF002041C8
:100B100000F0010080F0010024490855641C082CF5
:100B2000F1DB00240DE01F48007B80F0FF00204136
:100B300000F0010080F001011C4A04F1080011548A
:100B4000641C042CEFDB1748407B552803D104219B
:100B5000174800F031F813480068132820D11148D5
:100B6000C07A1449A1F84E000E48007BA1F850004D
:100B70000C48407BA1F852000A48807BA1F8540041
:100B80000848C07BA1F856000648007CA1F8580030
:100B90000448407CA1F85A000248807CA1F85C001F
:100BA00010BD0000409C0020006400402800002090
:100BB000AE010020A09D0020F0B585B007460D468F
:100BC000002410200090019000208DF808008DF87E
:100BD00009008DF80A5000BF05E0395D0DF10B00EA
:100BE0000155601C84B2AC42F7DB69460C4800F04A
:100BF0008AFA0646002401E0601C84B231460848A7
:100C000000F014FB18B940F6FF708442F4DB40F6A4
:100C1000FF70844202DB012005B0F0BD0020FBE73D
:100C2000006400402DE9F0418AB004460D461646A6
:100C30001F46DDF840800121022007F029FB012139
:100C40004FF0C06007F034FB6020089002208DF860
:100C5000240000208DF8260003208DF825000120B7
:100C60008DF8270008A92E4801F088FF09220521E8
:100C70002B4801F0CBFF09220621294801F0C6FFCD
:100C800000208DF81A008DF81B008DF81C00012043
:100C90008DF81D0000208DF81E008DF81F008DF8C6
:100CA00016808DF817408DF818608DF81950ADF842
:100CB000147005A91B4800F024F90E208DF80E00D1
:100CC00000208DF80F0001208DF810000020ADF8F5
:100CD0000400ADF80600ADF80800ADF80A00ADF864
:100CE0000C0001208DF8110001A800F07DF8012210
:100CF00002210C4800F0FCF840208DF80000012093
:100D00008DF8010002208DF8020001208DF803000B
:100D1000684602F06DFE00200AB0BDE8F0810000D8
:100D2000000402400068004000B587B0264A002158
:100D3000264800F070F92448006830281ED1224867
:100D4000007B2149C97A40EA0120214908800846F0
:100D500000882049A1F848001F48037808221C4851
:100D60000188684601F030FE1C2269461B48FFF7E7
:100D70002CFB1A48808A1749A1F84A0012480068DB
:100D800004281ED11048007B0F49C97A40EA01208F
:100D900013490880084600880E49A1F89C000E48B7
:100DA000037808220E480188684601F00DFE1C22D7
:100DB00069460C48FFF709FB0A48808A0549A1F8F3
:100DC0009A0007B000BD0000409C00200068004071
:100DD00034000020A09D0020B3010020549C00207E
:100DE00036000020709C002010B50021837A01227B
:100DF00002FA03F13D4A126842F001023B4B1A60CD
:100E00003A4A1C3212688A43384B1C331A60027B00
:100E1000CAB9364A0C3212688A43344B0C331A6012
:100E20004288C38842EA0343304A4032847A42F817
:100E300034300288838842EA03432C4A4032847A61
:100E400002EBC4025360027B012A19D1274A0C32FB
:100E500012680A43254B0C331A604288038842EA21
:100E60000343224A4032847A42F83430C28883886D
:100E700042EA03431D4A4032847A02EBC4025360C3
:100E8000C27A3AB9194A121D12688A43174B1B1DC0
:100E90001A6006E0154A121D12680A43134B1B1D07
:100EA0001A60028932B9114A143212688A430F4B10
:100EB00014331A600289012A06D10C4A14321268CE
:100EC0000A430A4B14331A60427B012A06D1074AAF
:100ED0001C3212680A43054B1C331A60034A12681D
:100EE00022F00102014B1A6010BD000000660040B4
:100EF0001AB143690B43436102E043698B43436189
:100F0000704730B5024600200023146824F0020424
:100F10001460146844F00104146000E05B1C546821
:100F200004F001041CB94FF6FF74A342F6D15468D3
:100F300004F001040CB900206CE08C79012C04D180
:100F4000146844F08004146003E0146824F0800402
:100F50001460CC79012C04D1146844F0400414606E
:100F600003E0146824F0400414600C7A012C04D1CE
:100F7000146844F02004146003E0146824F0200492
:100F800014604C7A012C04D1146844F010041460ED
:100F900003E0146824F0100414608C7A012C04D14E
:100FA000146844F00804146003E0146824F0080492
:100FB0001460CC7A012C04D1146844F00404146049
:100FC00003E0146824F0040414608C78A407CD783E
:100FD00044EA05640D7944EA05444D7944EA055430
:100FE0000D886D1E2C43D461146824F00104146034
:100FF000002300E05B1C546804F001041CB14FF6B0
:10100000FF74A342F6D1546804F001040CB100202F
:1010100000E0012030BD10B500F5D87303EB0113DB
:101020001B6803F004031372137A53B900F5D873E5
:1010300003EB01131B6840F2FF7404EA535313607F
:1010400009E000F5D87303EB01131B686FF06044EF
:1010500004EAD303536000F5D87303EB01131B6854
:1010600003F00203537200F5D87303EB01135B68BE
:1010700003F00F03937200F5D87303EB01135B6861
:101080001B0AD37400F5D87303EB01139B68D3726A
:1010900000F5D87303EB01139B681C0A147300F569
:1010A000D87303EB01139B681C0C547300F5D873C1
:1010B00003EB01139B681B0E937300F5D87303EBCE
:1010C0000113DB68D37300F5D87303EB0113DB68FE
:1010D0001C0A147400F5D87303EB0113DB681C0CB5
:1010E000547400F5D87303EB0113DB681B0E937483
:1010F00021B9C36843F02003C36003E0036943F0F0
:101100002003036110BD10B502460020936803F070
:101110008063B3F1806F00D110E0936803F0006347
:10112000B3F1006F01D1012008E0936803F0805310
:10113000B3F1805F01D1022000E00420042874D0C4
:1011400002F5C07303EB00131B6803F0010402F502
:10115000C07303EB00131C600B7A7BB94B7A0C88CD
:1011600043EA445302F5C07404EB0014246823439B
:1011700002F5C07404EB0014236010E00B7A4C6895
:1011800043EAC4034C7A234302F5C07404EB001411
:101190002468234302F5C07404EB001423608B7AA7
:1011A00003F00F038B7202F5C07303EB00135B684F
:1011B00023F00F0402F5C07303EB00135C6002F52B
:1011C000C07303EB00135B688C7A234302F5C07491
:1011D00004EB001463608B7B1C064B7B44EA0344E6
:1011E0000B7B44EA0323CC7A234302F5C07404EB5F
:1011F0000014A3608B7C1C064B7C44EA03440B7CEC
:1012000044EA0323CC7B234302F5C07404EB0014AF
:10121000E36002F5C07303EB00131B6843F00104A5
:1012200002F5C07303EB00131C6010BD10B502463D
:10123000002321B1012907D002290FD109E09068CC
:101240001D4C00EA04030BE090681C4C00EA040308
:1012500006E090681A4C00EA040301E0002300BF96
:1012600000BF184C181BA34216D007DC83B16FF0E7
:101270008060184470B1022818D111E0B0F5007FE9
:1012800010D0114C204448B1B0F5003F0ED10BE016
:1012900002230DE000230BE0002309E0002307E018
:1012A000012305E0012303E0012301E0002300BF47
:1012B00000BFD8B210BD0000030000040003000806
:1012C00000000310000100080001FFF710B500F056
:1012D0001FF800F019F810BD10B5002400BF00BFC2
:1012E000FEF7E6FF044600BF00BF1021054802F0EC
:1012F00045FA00BF00BF2046FEF7DEFF00BF00BF7B
:1013000010BD0000D4BD002010B5FFF7E5FF10BDF3
:1013100010B500200249086000F00AF810BD000076
:1013200020020020014908607047000020020020D0
:1013300010B5FFF751FB04460848006840F0807084
:10134000064908600020064948600846006840F0E9
:10135000010008602046FFF7E5FF10BDFCED00E04E
:10136000001000E00149486870470000001000E0EC
:1013700030B502460B464FF6FF70002112E0555C77
:10138000684000240AE000F0010525B140104AF24F
:101390000105684000E04010651CACB2082CF2DB8F
:1013A0004D1CA9B29942EADB30BD704710B5044626
:1013B000012C0DD1002049490870012048700020FF
:1013C00088700120C87004214448FFF7F5FB84E0D1
:1013D000022C0DD1012041490870002048700120E5
:1013E00088700020C87004213C48FFF7E5FB74E0DA
:1013F000032C0BD1002039490870487001208870F7
:10140000C87004213548FFF7D7FB66E0042C0BD1E8
:10141000012032490870487000208870C87004218B
:101420002E48FFF7C9FB58E0052C0DD100202B49B1
:10143000087001204870002088700120C8700421C5
:101440002648FFF7B9FB48E0062C0DD101202349BF
:10145000087000204870012088700020C8700421A6
:101460001E48FFF7A9FB38E0072C0DD100201B49CF
:10147000087001204870002088700120C870042185
:101480001648FFF799FB28E0082C0DD101201349DD
:10149000087000204870012088700020C870042166
:1014A0000E48FFF789FB18E0092C0AD101200B49EF
:1014B000087048708870C87004210848FFF77CFBEA
:1014C0000BE00A2C09D1002004490870487088708C
:1014D000C87004210148FFF76FFB10BDAE0100206A
:1014E00000200749488388820120A1F89600A1F8CE
:1014F000980000204885488008814881888170478D
:10150000A09D002001200449A1F872000020A1F84C
:101510007400A1F876007047A09D002010B5044625
:10152000022C05D1064801780648FEF780FF05E049
:10153000062C03D1FA210448FEF779FF10BD000004
:1015400003000020B4770020A87900200024FCE3E9
:10155000601CC4B2642C06D1FE480068C043FE493A
:10156000C1F880020024FD4890F85E00FC49087034
:10157000FA4890F85E00FB490870FB484079002863
:101580007ED1FA48007800281ED0F748407801281C
:101590001AD1F7480078B8BBF048B0F84E00F049CF
:1015A0000978884206DDED48B0F85000EC4909782A
:1015B00088420ADC0120EC49C8700220E749A1F802
:1015C0008C00052002F020F9D6E3E448B0F84E0084
:1015D000E34909788842F7DDE048B0F85000E04977
:1015E00009788842F0DD0020DF49C8700520DB491A
:1015F000A1F88C0000230122194618460BF018FEB2
:101600000120D9498871B7E3FFE7D948007801285C
:1016100039D1D248B0F85200D1490978884206DD64
:10162000CE48B0F85400CE49097888420ADC01203F
:10163000CD49C8700220C949A1F88C00052002F0EC
:10164000E3F899E3C548B0F85200C54909788842E3
:10165000BADDC248B0F85400C14909788842B3DD08
:101660000020C149C8700520BC49A1F88C000023A6
:101670000122194618460BF0DBFD0120BA4900E0B3
:10168000F1E0887178E3BA480078022837D1B3488E
:10169000B0F85600B2490978884206DDAF48B0F884
:1016A0005800AF49097888420ADC0120AE49C87069
:1016B0000220AA49A1F88C00052002F0A5F85BE3FE
:1016C000A648B0F85600A649097888429BDDA34891
:1016D000B0F85800A2490978884294DD0020A24958
:1016E000C87005209D49A1F88C00002301221946ED
:1016F00018460BF09DFD01209B4988713CE39C48F6
:101700000078032837D19548B0F85A0094490978F1
:10171000884206DD9148B0F85C009149097888421A
:101720000ADC01209049C87002208C49A1F88C0085
:10173000052002F069F81FE38848B0F85A0088498C
:10174000097888429EDD8548B0F85C0084490978B4
:10175000884297DD00208449C87005207F49A1F8A0
:101760008C0000230122194618460BF061FD012070
:101770007D49887100E37E480078042837D1774896
:10178000B0F85C0076490978884206DD7348B0F805
:1017900056007349097888420ADC01207249C870F2
:1017A00002206E49A1F88C00052002F02DF8E3E23A
:1017B0006A48B0F85C006A49097888429EDD67484B
:1017C000B0F8560066490978884297DD00206649DE
:1017D000C87005206149A1F88C0000230122194638
:1017E00018460BF025FD01205F498871C4E260486E
:1017F000007805289FD15948B0F85A00584909780F
:10180000884206DD5548B0F85800554909788842A5
:101810000ADC01205449C87002205049A1F88C000C
:10182000052001F0F1FFA7E24C48B0F85A004C49FE
:10183000097888429EDD4948B0F85800484909783F
:10184000884297DD00204849C87005204349A1F827
:101850008C0000230122194618460BF0E9FC0120F8
:101860004149887188E24348807A00289FD032E05D
:101870003A48B0F84E003B490978884209DB3748BE
:10188000B0F8500037490978884202DB3A480068CE
:1018900030B901203449C870052001F0B5FF14E0CB
:1018A0002E48B0F84E002F49097888420DDD2B48AC
:1018B000B0F850002B490978884206DD2E480068B0
:1018C000012802D100202849C870052300221146B2
:1018D00010460BF0ADFC294800780028C8D034E051
:1018E0001E48B0F852001F49097888420ADB1B489D
:1018F000B0F854001B490978884203DB1E48001FDA
:10190000006830B901201849C870052001F07CFF3B
:1019100015E01248B0F852001249097888420EDDED
:101920000E48B0F854000F490978884207DD124884
:10193000001F0068012802D100200B49C870052350
:101940000022114610460BF073FC0C48407800282A
:10195000C6D041E08002424200004242A09D0020E9
:10196000BA010020BB010020249F0020BC01002000
:10197000AD010020209D002024824242280000204A
:10198000FE48B0F85600FE490978884206DBFB485D
:10199000B0F85800FA490978884206DA0120F94976
:1019A000C870052001F030FF10E0F448B0F8560090
:1019B000F3490978884209DDF048B0F85800F04949
:1019C0000978884202DD0020EE49C8700523002214
:1019D000114610460BF02CFCEB4880780028CFD045
:1019E0002BE0E648B0F85A00E5490978884206DB62
:1019F000E248B0F85C00E2490978884206DA012042
:101A0000E049C870052001F0FFFE10E0DB48B0F8A7
:101A10005A00DB490978884209DDD848B0F85C00F3
:101A2000D7490978884202DD0020D649C8700523CD
:101A30000022114610460BF0FBFBD348C07800286B
:101A4000CFD02BE0CD48B0F85600CD490978884278
:101A500006DBCA48B0F85C00C9490978884206DA52
:101A60000120C849C870052001F0CEFE10E0C3482F
:101A7000B0F85C00C2490978884209DDBF48B0F877
:101A80005600BF490978884202DD0020BD49C87070
:101A900005230022114610460BF0CAFBBA48007A13
:101AA0000028CFD02BE0B548B0F85A00B4490978E7
:101AB000884206DBB148B0F85800B149097888423D
:101AC00006DA0120AF49C870052001F09DFE10E044
:101AD000AA48B0F85A00AA490978884209DDA748FF
:101AE000B0F85800A6490978884202DD0020A549CF
:101AF000C87005230022114610460BF099FBA2483E
:101B0000407A0028CFD047E09C48B0F84E009C496E
:101B10000978884214DB9948B0F850009849097850
:101B200088420DDB9548B0F85600954909788842FF
:101B300006DB9248B0F8580091490978884206DAE5
:101B400001209049C870052001F05EFE1EE08B4820
:101B5000B0F84E008A490978884217DD8748B0F806
:101B6000500087490978884210DD8448B0F8560053
:101B700083490978884209DD8048B0F858008049D7
:101B80000978884202DD00207E49C87005230022C2
:101B9000114610460BF04CFB7B4800790028B3D06F
:101BA00047E07648B0F8520075490978884214DB5E
:101BB0007248B0F854007249097888420DDB6F48CA
:101BC000B0F856006E490978884206DB6B48B0F8D9
:101BD00058006B490978884206DA01206949C870C3
:101BE000052001F011FE1EE06448B0F8520064497F
:101BF0000978884217DD6148B0F8540060490978D7
:101C0000884210DD5D48B0F856005D490978884289
:101C100009DD5A48B0F8580059490978884202DD70
:101C200000205849C87005230022114610460BF0C9
:101C3000FFFA554840790028B3D047E04F48B0F844
:101C40004E004F490978884214DB4C48B0F85000E8
:101C50004B49097888420DDB4848B0F85A0048499A
:101C60000978884206DB4548B0F85C0044490978A9
:101C7000884206DA01204349C870052001F0C4FDFE
:101C80001EE03E48B0F84E003D490978884217DD15
:101C90003A48B0F850003A490978884210DD374890
:101CA000B0F85A0036490978884209DD3348B0F85F
:101CB0005C0033490978884202DD00203149C87050
:101CC00005230022114610460BF0B2FA2E48807907
:101CD0000028B3D049E02948B0F8520028490978D3
:101CE000884214DB2548B0F8540025490978884219
:101CF0000DDB2248B0F85A0021490978884206DBFA
:101D00001E48B0F85C001E490978884206DA0120B6
:101D10001C49C870052001F077FD20E01748B0F895
:101D2000520017490978884219DD1448B0F8540068
:101D300013490978884212DD1048B0F85A0010495A
:101D4000097888420BDD0D4800E024E0B0F85C0023
:101D50000B490978884202DD00200A49C870052332
:101D60000022114610460BF063FA0748C07900289C
:101D7000B1D000200349C870052307E0A09D0020D2
:101D8000BB010020249F00202800002000221146D3
:101D900010460BF04DFAFFF7DBBB000028E01548BA
:101DA0008079F8B11348007AE0B912488078C8B950
:101DB0001148B0F8840048B915200F49C8830FA016
:101DC0000BF04EFD00200B4988710BE00BF06CFD11
:101DD00005200949A1F88C0001200E490875002052
:101DE0000449887105230022114610460BF020FAA1
:101DF000D5E70000249F0020A09D0020C7EBD1A1C3
:101E0000D4F1D0E8D2AAD6B4D0D0B5C4C8CECEF1E1
:101E1000A3A10000209D002000241AE0601C84B2D1
:101E2000282C02D1002401F0ADF80A48C07950B145
:101E30000BF086FF03200849A1F88C000020074919
:101E400008750449C87105230022114610460BF09D
:101E5000EFF9E3E7249F0020A09D0020209D0020B3
:101E600000240025C2E062484079002840D1614842
:101E7000007858B96048B0F848402DB124B95F489F
:101E80000078401C5D49087025460EE059480078EE
:101E900001280AD15848B0F89C402DB124B95748C0
:101EA0000078401C554908702546524800780228A1
:101EB0001FD15148B0F848404FF6FF70854204D01A
:101EC000844202D101204E4908704D480078012813
:101ED0000DD14C484069012801DA012000E00020C2
:101EE00028B1002046490870082047490870254657
:101EF00076E04048007803281FD13F48B0F84840BA
:101F00004FF6FF70854204D0844202D101203C4943
:101F100008703B48007801280DD13A4840690128F3
:101F200001DA012000E0002028B1002034490870C7
:101F3000082035490870254652E02E4800780428CC
:101F400025D12D48B0F848404FF6FF70854201D1A9
:101F5000854206D14FF6FF70844202D10120284904
:101F600008702748007801280FD1264840690428C6
:101F700001DA012000E0002038B10020204908707B
:101F800022480078401C21490870254628E019485D
:101F90000078052824D11848B0F848404FF6FF7063
:101FA000854201D1854206D14FF6FF70844202D1AD
:101FB0000120134908701248007801280FD11148F8
:101FC0004069042801DA012000E0002038B1002037
:101FD0000B4908700D480078401C0C4908702546D4
:101FE00005230022114610460BF022F93BE70000C2
:101FF000249F0020AD010020A09D0020B4010020FE
:1020000001000020549C0020B6010020B5010020F2
:1020100010B50749074800F063F938B1044905488D
:1020200000F088F80021034800F09EF810BD000081
:10203000008000185860024010B50A490A4800F0B4
:102040004FF968B1012240F22661084809F0F0FD1D
:102050000449054800F06EF80021034800F084F8B8
:1020600010BD00002080002070600240004C004045
:1020700010B50749074800F033F938B1044905485D
:1020800000F058F80021034800F06EF810BD000081
:1020900000802020A06002402DE9F0410026154973
:1020A000154800F01DF910B300241AE0002509E0DE
:1020B00005EB4500114901EB400030F814000644DF
:1020C000681CC5B21E2DF3DB1E2096FBF0F73846C8
:1020D0000CF012F80A4A02EBC40203C20026601C8C
:1020E000C4B2032CE2DB0349034800F023F8BDE847
:1020F000F08100002080001010640240F074002085
:10210000A875002010B50849084800F0E9F850B15A
:102110000549064800F00EF80021044800F024F8B4
:1021200001200349087010BD00800028B8640240F7
:10213000F00100200246094B9A4201D2084801E012
:102140000648103801F000531BB1064B0B40C3602A
:1021500002E0044B0B4083607047000010640240B3
:10216000006002407D0F7D0F21B1026842F0010244
:10217000026003E0026822F0010202607047000082
:10218000016821F00101016000210160416081606E
:10219000C1600161212141614A49884204D13D2148
:1021A000484A103A91608CE046491831884205D17E
:1021B0004FF47461434A103A916082E041493031F2
:1021C000884205D14FF474113E4A103A916078E08C
:1021D0003C494831884205D14FF07461394A103A80
:1021E00091606EE037496031884204D13649354A02
:1021F000103AD16065E033497831884204D13349DF
:10220000304A103AD1605CE02E499031884204D1C6
:102210002F492C4A103AD16053E02A49A83188420C
:1022200005D14FF03D51274A103AD16049E0294984
:10223000884204D13D21274A083A116041E02549EE
:102240001831884205D14FF47461224A083A11606E
:1022500037E020493031884205D14FF474111D4ACE
:10226000083A11602DE01B494831884205D14FF0F2
:102270007461184A083A116023E0164960318842B7
:1022800004D11149134A121F11601AE01149783123
:10229000884204D10D490F4A121F116011E00D4907
:1022A0009031884204D10A490A4A121F116008E09D
:1022B0000849A831884204D14FF03D51054A121F08
:1022C00011607047106002403D000020400F002068
:1022D00000003D20106402400146486880B270470B
:1022E00070B50246002000240025124EB24201D2F1
:1022F000114B01E00F4B103B104E0E4036B11E2625
:1023000006EAD124166806EA040502E0566906F0DA
:10231000800501F000560EB15C6800E01C68084EB4
:10232000344004EA010616B10DB1012000E000209E
:1023300070BD000010640240006002403C0F3C0F82
:102340007D0F7D0F10B501F080034BB122B14369C1
:1023500043F08003436103E0436923F0800343615A
:1023600080290BD02AB1036801F01E0423430360C7
:1023700004E0036801F01E04A343036010BD0000E5
:1023800010B500220268134B1A40CC680B68234337
:102390004C6923438C692343CC6923430C6A234350
:1023A0004C6A23438C6A23434C6B23438C6B23433B
:1023B0001A430260426922F00702D1E90B34234339
:1023C0001A4342610B6943604B6883608B68C3604A
:1023D00010BD00003F801CF04160704700B591B017
:1023E0000121480505F054FF00213A48FFF7BCFEE3
:1023F0003848FFF7C5FE4FF0006001903648029064
:102400003648039040200490FA2005900020069062
:102410004FF4806007900020089009904FF480707E
:102420000A9000200C9003200D9000040B900020D7
:102430000E900F9001A92748FFF7A2FF0021254821
:10244000FFF792FE012210212248FFF77BFF0021B7
:1024500020481838FFF788FE1E481838FFF790FE0E
:102460004FF0006001901C4802901D48039000202E
:102470000490FA200590002006904FF480600790A9
:102480000020089009904FF480700A9000200C9072
:1024900003200D9000040B9000200E900F9001A9D6
:1024A0000C481838FFF76CFF01210A481838FFF76D
:1024B0005BFE11208DF8400002208DF841000520C0
:1024C0008DF8420001208DF8430010A801F090FA29
:1024D00011B000BDA060024004440040AE7800206E
:1024E000B477002000B591B00121480505F0D0FE79
:1024F00000213A48FFF738FE3848FFF741FE4FF019
:1025000000600190364802903648039040200490C5
:1025100082200590002006904FF4806007900020F4
:10252000089009904FF480700A9000200C900320CE
:102530000D9000040B9000200E900F9001A92748E9
:10254000FFF71EFF00212548FFF70EFE0122102194
:102550002248FFF7F7FE002120483038FFF704FE3D
:102560001E483038FFF70CFE4FF0006001901C4809
:1025700002901D48039000200490822005900020C6
:1025800006904FF4806007900020089009904FF467
:1025900080700A9000200C9003200D9000040B9096
:1025A00000200E900F9001A90C483038FFF7E8FE8C
:1025B00001210A483038FFF7D7FD0E208DF8400082
:1025C00002208DF8410005208DF8420001208DF891
:1025D000430010A801F00CFA11B000BD5860024091
:1025E000044800401E7C00209C7B002000B591B078
:1025F0000121480505F04CFE00213A48FFF7B4FDE3
:102600003848FFF7BDFD4FF000600190364802905A
:102610003648039040200490FA2005900020069050
:102620004FF4806007900020089009904FF480706C
:102630000A9000200C9003200D9000040B900020C5
:102640000E900F9001A92748FFF79AFE0021254818
:10265000FFF78AFD012210212248FFF773FE0021B7
:1026600020483038FFF780FD1E483038FFF788FDDE
:102670004FF0006001901C4802901D48039000201C
:102680000490FA200590002006904FF48060079097
:102690000020089009904FF480700A9000200C9060
:1026A00003200D9000040B9000200E900F9001A9C4
:1026B0000C483038FFF764FE01210A483038FFF734
:1026C00053FD0F208DF8400002208DF841000420BA
:1026D0008DF8420001208DF8430010A801F088F920
:1026E00011B000BD70600240044C0040C075002075
:1026F000BA76002000B591B00121880505F0C8FD2B
:1027000000213A48FFF730FD3848FFF739FD4FF018
:102710002060019036480290364803904020049093
:10272000FA200590002006904FF48060079000206A
:10273000089009904FF480700A9000200C900320BC
:102740000D9000040B9000200E900F9001A92748D7
:10275000FFF716FE00212548FFF706FD0122102194
:102760002248FFF7EFFD002120489038FFF7FCFCDE
:102770001E489038FFF704FD4FF0206001901C4880
:1027800002901D48039000200490FA20059000203C
:1027900006904FF4806007900020089009904FF455
:1027A00080700A9000200C9003200D9000040B9084
:1027B00000200E900F9001A90C489038FFF7E0FD23
:1027C00001210A489038FFF7CFFC46208DF84000E1
:1027D00002208DF8410004208DF8420001208DF880
:1027E000430010A801F004F911B000BDB864024024
:1027F00004140140A27A0020A879002000B591B00D
:102800000121880505F044FD00212048FFF7ACFCBC
:102810001E48FFF7B5FC002001901D4802901D489E
:102820000390002004905A200590002006904FF459
:1028300080600790400008900990C0100A90002026
:102840000C9003200D9000040B9000200E900F9030
:1028500001A90E48FFF794FD012210210B48FFF754
:1028600071FD01210948FFF77FFC38208DF84000F9
:1028700002208DF8410003208DF8420001208DF8E0
:10288000430010A801F0B4F811B000BD106402407C
:102890004C200140F07400207047000070B545489E
:1028A000B0F86E0000287CDD4248B0F86E000028C9
:1028B00027DD4048B0F86E003E49B1F870108842FC
:1028C0001FD03C48B0F8704016E0002510E004EB43
:1028D0004400394901EB400030F81510601E00EB50
:1028E0004000354A02EB400020F81510681C85B204
:1028F000032DECDB601C84B22E48B0F86E00A042C1
:10290000E3DC2C48B0F86E00401E2A49A1F86E00A6
:102910000846B0F86E0018B90020A1F870000FE06A
:102920002448B0F86E00401C2249B1F8701088426B
:1029300006D12048B0F87000401E1E49A1F8700072
:10294000002415E01B4AB2F86C20521E1B4B4FF4BA
:10295000967606FB0232032303FB042104EB4402B8
:10296000154B03EB4200032209F0FEFD601C84B20C
:102970001048B0F86E00A042E4DC0E48B0F86E10CB
:10298000B0F86C00401E0E4A22F81010094AB2F846
:102990006C200C4BD118074AB2F86C20521E084B21
:1029A00000E006E003EB4200012209F0DDFD09F042
:1029B00003FA70BDA09D002094B700208E460F0042
:1029C000ACB3002099440F002DE9FF4F87B0884633
:1029D00091469A460024D3466FEA080085B2002645
:1029E000002700BF00208DF800008DF811008DF841
:1029F000120005908DF8180000240CE045FA04F050
:102A000000F0010028B19DF81200401CC0B28DF802
:102A10001200601C84B2102CF0DB00240AE045FA9E
:102A200004F000F0010010B9701C86B200E0102420
:102A3000601C84B2102CF2DB00240AE005FA04F0DA
:102A400000F4004010B9781C87B200E01024601C2C
:102A500084B2102CF2DB344611E045FA04F000F0A9
:102A6000010050B99DF800200DF1010084549DF83B
:102A70000000401CC0B28DF80000601C84B2C7F199
:102A80001000A042E9DC9DF8000000281FDD0120B5
:102A90008DF811009DF80000012818DD002411E0D8
:102AA0000DF10100611C415C005D081A012800D194
:102AB00006E09DF81100401CC0B28DF8110000BF67
:102AC000601C84B29DF80000401EA042E8DC9DF826
:102AD000120028B91020059001208DF818003EE062
:102AE0009DF80000002830DD9DF81100012836D146
:102AF000BBF1020F10D134460BE045FA04F000F0B0
:102B0000010018B10120A040854300E01024601CA2
:102B100084B2102CF1DB65E7BBF1010F11D13C460B
:102B20000CE005FA04F000F4004020B14FF400403E
:102B30002041854300E01024601C84B2102CF0DB9F
:102B400050E701208DF8180009E09DF81200484573
:102B500002DCB81B059002E001208DF818001C2251
:102B600069460548FDF731FC1C2269460798FDF7C8
:102B70002CFC0BB0BDE8F08FC49C0020F0B50A46D9
:102B800000210023002400BF3DE0012505FA01F3E8
:102B9000156805EA03049C4234D105684F000326FA
:102BA000BE40B543056015794E00B5400668354313
:102BB00005601579012D02D01579022D16D1856891
:102BC0004F000326BE40B543856055794E00B540A1
:102BD000866835438560456801268E40B54345606B
:102BE000456896798E40B6B235434560C5684F005A
:102BF0000326BE40B543C560D5794E00B540C668D2
:102C00003543C560491C1029BFD3F0BDF0B5002382
:102C100000244D07ED0E02FA05F3CE1000F1200559
:102C200055F826504E07F70E0F26BE40B543CF107D
:102C300000F1200646F82750CE1000F1200555F887
:102C4000265045EA0304CE1000F1200545F8264041
:102C5000F0BD4183704701837047000010B56522C5
:102C60000021024809F0F6FB10BD0000329F002051
:102C700070B50024344AB2F86C20344BD118324A73
:102C8000B2F86C20521E324B03EB4200012209F0D5
:102C9000E1FB2D48B0F86C00401E2D4931F81000C2
:102CA0002949A1F86E000120A1F870000846B0F88B
:102CB0006E00642804DD0020A1F86E00A1F8700009
:102CC000002415E0204AB2F86C20521E214B4FF42C
:102CD000967505FB0232032303FB042104EB440237
:102CE0001D4B03EB4200032209F0B4FB601C84B2CD
:102CF0001548B0F86E00A042E4DC1348B0F870004C
:102D0000401E00EB4000144931F810000E49A1F8B4
:102D100072000846B0F87000401E00EB40000E49FB
:102D200001EB400040880849A1F874000846B0F85B
:102D30007000401E00EB4000074901EB4000808816
:102D40000149A1F8760070BDA09D002099440F00B4
:102D5000ACB300208E460F0094B7002070B5044637
:102D600000252F4AA118621E2E4B03EB42000122C0
:102D700009F070FB601E2B4931F810002A49A1F8B8
:102D80006E000120A1F870000846B0F86E006428BB
:102D900004DD0020A1F86E00A1F87000002512E00B
:102DA000621E224B4FF4967606FB0232032303FB8E
:102DB000052105EB45021E4B03EB4200032209F0FF
:102DC00049FB681C85B21848B0F86E00A842E7DCE1
:102DD0001548B0F87000401E00EB4000144931F86F
:102DE00010001149A1F872000846B0F87000401EAA
:102DF00000EB40000E4901EB400040880A49A1F871
:102E000074000846B0F87000401E00EB400008490E
:102E100001EB400080880449A1F8760070BD0000F5
:102E200099440F00ACB30020A09D00208E460F00F7
:102E300094B7002010B50446064AA118621E064B3E
:102E400003EB4200012209F005FB601E024931F844
:102E5000100010BD99440F00ACB3002070B50546BA
:102E6000284600F025F80F49C884002412E06A1EA5
:102E70004FF4FA635A4302F25922142303FB04214C
:102E800004EB8402084B03EBC200142209F0E2FABF
:102E9000601C84B2681E054931F81000A042E6DCCF
:102EA00070BD0000A09D0020E4A30020FC9F002036
:102EB00010B5044604F16401621E0B4B03EB4200A3
:102EC000012209F0C7FA601E074931F81000642892
:102ED00004DD0021601E044A22F81010601E024921
:102EE00031F8100010BD0000FC9F002010B502203A
:102EF000FEF75CFA10BD00BFFEE7302805DB39287D
:102F000003DCA0F13001C8B210E0412805DB4628FF
:102F100003DCA0F13701C8B208E0612805DB6628B0
:102F200003DCA0F15701C8B200E0FF2070470000A9
:102F300010B50D48B0F88400022805D1FFF798FEBF
:102F40000A4800880849C8860749C88EFFF7B0FFBD
:102F50000549C88400204880C88EFFF77FFF0448D9
:102F600040890149888710BDA09D002094B70020AA
:102F7000E4A300204CF6CC400149086070470000F3
:102F80000030004010B500F013F810BD70B50546D4
:102F90000C4645F2555000F01FF8284600F010F896
:102FA000204600F013F800F003F8FFF7E3FF70BDD0
:102FB0004AF6AA200149086070470000003000402E
:102FC00001494860704700000030004001498860B6
:102FD0007047000000300040014908607047000061
:102FE0000030004070B53C48B0F86E10B0F86C008E
:102FF000401E3A4A22F81010374AB2F86C20384B7B
:10300000D118354AB2F86C20521E344B03EB420003
:10301000012209F0A9FA3048B0F86E4017E0002507
:1030200011E0A01E00EB40002E4901EB400030F8FB
:103030001510601E00EB40002A4A02EB400020F809
:103040001510681C85B2032DEBDB601E84B222488C
:10305000B0F87000A042E2DD1F48B0F87210B0F87E
:103060007000401E00EB40001E4A22F810101A4863
:10307000B0F87410B0F87000401E00EB400002EB96
:10308000400041801448B0F87610B0F87000401E3F
:1030900000EB400002EB40008180002415E00E4A66
:1030A000B2F86C20521E104B4FF4967606FB02329B
:1030B000032303FB042104EB44020A4B03EB42000D
:1030C000032209F051FA601C84B20348B0F86E0084
:1030D000A042E4DC70BD0000A09D0020ACB3002045
:1030E00099440F0094B700208E460F001CB50121B3
:1030F000202005F0CDF80121022005F0C9F80121BA
:10310000402005F0C5F80121084605F0C1F801216D
:10311000042005F0BDF80121082005F0B9F80121CF
:10312000102005F0B5F82020009000208DF8040054
:1031300003208DF8050001208DF8070069467D48C1
:10314000FFF71CFD48F21040009000208DF80400AD
:1031500003208DF8050001208DF8070069467648A8
:10316000FFF70CFD44F2F070009000208DF8040091
:1031700003208DF8050001208DF8070069466F488F
:10318000FFF7FCFC48F20810009001208DF80400C5
:1031900000208DF8060003208DF8050001208DF831
:1031A000070069466348FFF7E9FC002064490860AE
:1031B00001206449C1F8A00261493031086040F241
:1031C000F970009001208DF8040000208DF80600B1
:1031D00003208DF8050001208DF8070069465A4844
:1031E000FFF7CCFC01205949086058490C310860B0
:1031F000091D0860091D0860091D0860091D086097
:10320000091D0860091D08605149C1F8A802302055
:10321000009001208DF8040000208DF806000320A6
:103220008DF8050001208DF8070069464948FFF731
:10323000A5FC0120484908604849C1F894024FF2B2
:103240001B00009001208DF8040000208DF806007E
:1032500003208DF8050001208DF8070069464048DD
:10326000FFF78CFC01203F490860091D08603D49BB
:103270000C310860091D08603A4930310860091DA9
:103280000860091D08603849C1F8BC02032000909D
:1032900001208DF8040000208DF8060003208DF831
:1032A000050001208DF8070069462348FFF766FCFA
:1032B00001202E4908602E49C1F884020F20009099
:1032C00001208DF8040000208DF8060003208DF801
:1032D000050001208DF8070069461848FFF74EFCED
:1032E000012024490860091D0860091D0860224961
:1032F000C1F88C024FF46C40009001208DF804005E
:1033000000208DF8060003208DF8050001208DF8BF
:10331000070069461948FFF731FC01201849086089
:10332000174914390860091D08601649C1F8B4022C
:103330001CBD0000000002400010024000140240CA
:103340008C02404200004042000402408082404221
:103350000080404200080240900241420000414289
:10336000000C024080824142008041428002424281
:1033700000004242808242420080424200180240E5
:10338000BC0243420000434210B57E20144908703D
:1033900032204870352088703020C8700871342081
:1033A0004871362088713420C87132200872452057
:1033B000487230208872C8723220087330204873F7
:1033C000312088734620C873442008743320487421
:1033D000312088740D20C874142008F0BDFC10BD85
:1033E0001E7C002000BFBEE1DF480068012803D139
:1033F000052000F009FAB0E1DC4840790128FAD153
:10340000DA48C0780028F6D1D948007848BB0120B6
:10341000FDF7CCFF1DE0D748B0F86410012000F0A4
:10342000ABFAD448B0F86410022000F0A5FAD148F5
:10343000B0F86410032000F09FFACE48B0F8641092
:10344000042000F099FA0A2300221146104609F0E0
:10345000EFFEC74800780028DDD0052000F0D4F941
:103460007BE1C348407848BB0220FDF79FFF1DE089
:10347000C048B0F86410012000F01AFABD48B0F856
:103480006410022000F014FABA48B0F86410032067
:1034900000F00EFAB748B0F86410042000F008FA03
:1034A0000A2300221146104609F0C2FEB0484078B7
:1034B0000028DDD0052000F0A7F94EE1AC48807867
:1034C00048BB0320FDF772FF1DE0AA48B0F8641066
:1034D000012000F0EDF9A748B0F86410022000F0D8
:1034E0004BFAA448B0F86410032000F045FAA14854
:1034F000B0F86410042000F0DBF90A230022114622
:10350000104609F095FE9A4880780028DDD0052005
:1035100000F07AF921E19648C07848BB0420FDF715
:1035200045FF1DE09348B0F86410012000F024FA34
:103530009048B0F86410022000F0BAF98D48B0F855
:103540006410032000F0B4F98A48B0F86410042035
:1035500000F012FA0A2300221146104609F068FE14
:103560008348C0780028DDD0052000F04DF9F4E054
:103570007F48007918BB0520FDF718FF17E00120F0
:1035800000F042F97B48B0F86410022000F0F4F932
:103590007848B0F86410032000F0EEF9042000F041
:1035A00033F90A2300221146104609F041FE704803
:1035B00000790028E3D0052000F026F9CDE06C4822
:1035C000407918BB0620FDF7F1FE17E06948B0F816
:1035D0006410012000F06CF9022000F015F90320BE
:1035E00000F012F96348B0F86410042000F060F9AC
:1035F0000A2300221146104609F01AFE5C48407961
:103600000028E3D0052000F0FFF8A6E058488079B4
:1036100018BB0720FDF7CAFE17E05648B0F8641043
:10362000012000F0A9F9022000F0EEF8032000F0DC
:10363000EBF85048B0F86410042000F09DF90A231C
:1036400000221146104609F0F3FD49488079002810
:10365000E3D0052000F0D8F87FE04548C07918BBDA
:103660000820FDF7A3FE17E0012000F0CDF8414847
:10367000B0F86410022000F01BF93E48B0F8641066
:10368000032000F015F9042000F0BEF80A23002200
:103690001146104609F0CCFD3548C0790028E3D02A
:1036A000052000F0B1F858E03148007A48BB092005
:1036B000FDF77CFE1DE02F48B0F86410012000F0FB
:1036C000F7F82C48B0F86410022000F055F92948AA
:1036D000B0F86410032000F0EBF82648B0F864104E
:1036E000042000F049F90A2300221146104609F08F
:1036F0009FFD1F48007A0028DDD0052000F084F8E7
:103700002BE01B48407A40BB0A20FDF74FFE1DE02E
:103710001848B0F86410012000F02EF91548B0F8F0
:103720006410022000F0C4F81248B0F864100320BE
:1037300000F022F90F48B0F86410042000F0B8F847
:103740000A2300221146104609F072FD0848407A0B
:103750000028DDD0052000F057F80A23002211468A
:10376000104609F065FD3FE618824242249F002082
:1037700028000020A09D002000BFFEE730B50546D0
:103780000C4622460021284600F001F830BD2DE904
:10379000F04105460B4694460027002402E03F0214
:1037A0001F43641C042CFAD3604605F00306294627
:1037B00046B1344603E001F8013B401E641C08B1E9
:1037C000042CF8D30A4601E080C2001F0428FBD273
:1037D000114602E001F8013B401E0028FAD1BDE885
:1037E000F08100000120064908600649C1F88C02FA
:1037F00003490C3908600349C1F880027047000092
:10380000908241420080414210B50446012C07D10C
:103810000020234908600021224807F03CFC3EE0DC
:10382000022C08D100201E49091F086000211D48F4
:1038300007F033FC33E0032C08D1002018490C3981
:1038400008600021174807F02AFC28E0042C08D162
:1038500000201349103908600021124807F021FCAC
:103860001DE00020104908700D4908600F49C1F89B
:103870008C020B490C3908600C49C1F88002002108
:10388000084807F008FC0021064807F006FC002164
:10389000044807F004FC0021024807F002FC10BDB8
:1038A0009082414200080040AC010020008041426B
:1038B00070B505460C46012D06D0022D0DD0032D06
:1038C00015D0042D27D11CE0012014490860C4F54F
:1038D0007A71134807F0DFFB1EE001200F49091F32
:1038E0000860C4F57A710E4807F0D7FB14E0012098
:1038F0000A490C390860C4F57A71094807F0CFFB12
:103900000AE00120054910390860C4F57A710448BD
:1039100007F0C7FB00E000BF00BF70BD90824142CE
:103920000008004070B505460C46012D06D0022D5A
:103930000AD0032D0ED0042D18D111E0C4F57A71F0
:103940000C4807F0A8FB12E0C4F57A71094807F0AB
:10395000A4FB0CE0C4F57A71064807F0A0FB06E072
:10396000C4F57A71034807F09CFB00E000BF00BF7C
:1039700070BD00000008004070B505460C46012DE2
:1039800006D0022D0DD0032D15D0042D27D11CE01B
:10399000012014490860C4F57A71134807F07BFBD5
:1039A0001EE001200F49091F0860C4F57A710E4816
:1039B00007F073FB14E001200A490C390860C4F5D4
:1039C0007A71094807F06BFB0AE0012005491039BC
:1039D0000860C4F57A71044807F063FB00E000BF9B
:1039E00000BF70BD90824142000800407047000057
:1039F00070B5002100230F22C4781CB3174C246833
:103A000004F4E064C4F5E064C4F30721C1F10404E4
:103A1000E3B20A4144789C40E1B2847814402143E7
:103A20000C07210E0E4C05786155047804F01F0533
:103A30000124AC4005786D11AD0005F1E025C5F815
:103A4000004109E0047804F01F050124AC40054D55
:103A50000678761145F8264070BD00000CED00E0B8
:103A600000E400E080E100E002490143024A116005
:103A7000704700000000FA050CED00E015481648FC
:103A800016481748174818481848194819481A4836
:103A90001A481B481B481C481C481D481D481E4806
:103AA0001E481F481F4820482048214821482248D6
:103AB00022482348234824482448254825482648A6
:103AC000264827482748284828482948294800BF29
:103AD00070470000A8E2000808E200080CE20008B5
:103AE00010E2000814E2000818E200081CE20008D6
:103AF00020E2000824E2000828E200082CE2000886
:103B000030E2000834E2000838E200083CE2000835
:103B100040E2000844E2000848E200084CE20008E5
:103B200050E2000854E2000858E200085CE2000895
:103B300060E2000864E2000868E200086CE2000845
:103B400070E2000874E2000878E200087CE20008F5
:103B500080E2000884E2000888E200088CE20008A5
:103B600090E2000894E2000898E200089CE2000855
:103B7000A0E20008A4E2000810B50348006810B1F4
:103B800001480068804710BD3802002070B5044627
:103B900000F0C2F8002048490870484908704849B8
:103BA0000870484908604849086048490870484911
:103BB0000870484908704849086048490860484901
:103BC000086048490870484800680A21B0FBF1F0D5
:103BD000464908604648006858B14648056845B1FE
:103BE0004348066803E0761E002028602D1D002E45
:103BF000F9D1002040490860404908604049086008
:103C000040490860404908604049086040490860F0
:103C10004049087002F0ECF902F0CCFA204601F0BD
:103C20007BFB208800B170BD204601F05DFF20883D
:103C300000B1F8E7204601F07FFF208800B1F2E7ED
:103C4000204602F04BF8208800B1ECE7204602F055
:103C5000FFF9208800B1E6E7204602F01FFC20882B
:103C600000B1E0E7204602F041FF208800B1DAE72A
:103C7000204601F0A5FE208800B1D4E7204601F0DF
:103C8000BDFC208800B1CEE7204603F09FFE2088CF
:103C900000B1C8E7204602F06DFE208800B1C2E7FF
:103CA000204603F0EFFE208800B1BCE701F05CFA8B
:103CB000FFF7E4FE00BFB6E74C0200204D020020F3
:103CC00094020020EC020020F00200207A02002082
:103CD0007B0200207C020020880200208C02002051
:103CE000900200209C02002068E200089802002058
:103CF00038E2000834E200082C02002030020020E4
:103D000034020020380200203C0200204002002043
:103D100044020020CA0200200648006806490968DB
:103D200000EB8100054908600846006820F00700A4
:103D30000860704734E2000838E20008F40200200E
:103D400008480078012800D0704707480078FA2812
:103D500000DBF9E704480078401C0349087000BF05
:103D6000F2E700004D0200204C02002010B50024B4
:103D70002D480078012800D010BD00BFFCF798FA4C
:103D8000044600BF2948007828B900BF2046FCF748
:103D900093FA00BFF0E725480078401E23490870D9
:103DA00008460078002805DD00BF2046FCF784FAAD
:103DB00000BFE1E71E480078002805DD00BF20466F
:103DC000FCF77AFA00BFD7E702F0FEF8194908704D
:103DD0000846007800EB4000174951F820001749C9
:103DE00008600846006816490968884205D100BF86
:103DF0002046FCF761FA00BFBEE710480068D0F823
:103E00009000401C0D490968C1F890000D480068F9
:103E1000401C0C490860FCF79FFB00BF2046FCF7E4
:103E20004BFA00BF00BFA7E74D0200204C02002064
:103E3000940200207B02002008D40020F002002021
:103E4000EC020020C002002010B500241F480078BA
:103E5000002800DD10BD1E480078002800DDF9E7CD
:103E600000BFFCF725FA044600BF02F0ADF819497F
:103E700008700846007800EB4000174951F8200010
:103E8000164908600846006815490968884205D146
:103E900000BF2046FCF710FA00BFDBE70F480068C0
:103EA000D0F89000401C0D490968C1F890000D48F9
:103EB0000068401C0B490860FCF749FB00BF204626
:103EC000FCF7FAF900BF00BFC4E700004C02002075
:103ED000940200207B02002008D40020F002002081
:103EE000EC020020C002002070B5044600251848EE
:103EF0000078002803DD46F66250208070BD15482A
:103F00000078012803D045F689602080F6E7124842
:103F10000078FA2803DB45F209202080EEE700BF95
:103F200000BFFCF7C5F9054600BF00BF0A4800788E
:103F3000401C0949087002F01DFA00BF00BF284666
:103F4000FCF7BAF900BF00BF0020208000BFD5E712
:103F50004C0200204D020020940200202DE9F04187
:103F600005460C461646002700BF00BFFCF7A0F927
:103F7000074600BF00BF012D03D000200D49087087
:103F800002E001200B49087014B10B48046006E000
:103F90000A4800680A21B0FBF1F00749086000BF39
:103FA00000BF3846FCF788F900BF00BF0020308012
:103FB000BDE8F0819C0200209802002068E2000821
:103FC00070B50446002520480078002803DD46F639
:103FD0006550208070BD1D480078012803D045F64B
:103FE00089602080F6E71A48007818B946F66450D0
:103FF0002080EFE700BF00BFFCF75AF9054600BF7D
:1040000000BF13480078401E114908700846007828
:1040100000280ADD00BF00BF2846FCF74DF900BFAD
:1040200000BF46F663502080D4E702F0B1F900BF2C
:1040300000BF2846FCF740F900BF00BFFFF704FFB0
:104040000020208000BFC5E74C0200204D02002068
:104050009402002010B5044612480078E8B901F037
:10406000B3FF1149087008460078104908700E48DF
:10407000007800EB40000E4951F820000D4908601F
:10408000084600680C490860012006490870FCF7E2
:104090004DFA43F69920208002E045F68A602080A0
:1040A00010BD00004D0200207B0200207A0200209B
:1040B00008D40020F0020020EC0200202DE9F0419D
:1040C00007464FF0000800BF00BFFCF7F1F880463C
:1040D00000BF00BF00203D4908603D4908803D49C0
:1040E00008803D4908603D4908603D4908603D49F8
:1040F00008603D49088100BF00BF4046FCF7DCF87E
:1041000000BF00BF00BF00BFFCF7D2F8804600BF71
:1041100000BF3648046800BF00BF4046FCF7CCF83B
:1041200000BF00BF21E000BF00BFFCF7C1F8804620
:1041300000BF00BF00207834E06320602063A061EE
:10414000A082E0826062A062FDF70CF92062783CF8
:1041500004F164060020B081D4F8BC4000BF00BF69
:104160004046FCF7A9F800BF00BF002CDBD100BF20
:1041700000BFFCF79DF8804600BF00BF1C480568E3
:1041800000BF00BF4046FCF797F800BF00BF12E039
:1041900000BF00BFFCF78CF8804600BF00BF05F1F0
:1041A00020060020B081AD6900BF00BF4046FCF78B
:1041B00083F800BF00BF002DEAD103F0E3FA03F05B
:1041C0005DFD00203880BDE8F08100006002002025
:1041D0005A020020AA020020BC020020D0020020C7
:1041E000DC0200208C020020FCD30020C40200204E
:1041F00080020020F8B5044600266946324800F0E7
:104200008FFDBDF8000018B1BDF800002080F8BD9A
:104210006A460021022000F0F7FDBDF8000018B149
:10422000BDF800002080F2E700BF00BFFCF740F8B7
:10423000064600BF00BF00202449086000BF00BF41
:104240003046FCF739F800BF00BF00252048006861
:1042500020490968884205D91D4800681D49096838
:10426000B0FBF1F525B91A4800680A21B0FBF1F559
:104270006A460021284600F0C7FD6946124800F052
:1042800063FABDF8000018B1BDF800002080BEE759
:1042900000BF00BFFCF70CF8064600BF00BF0020BF
:1042A0000D490860094800680C49086001200C4964
:1042B000087000BF00BF3046FBF7FEFF00BF00BF25
:1042C0000020208000BFA2E790D80020AC02002090
:1042D00068E2000850E20008BC020020B0020020A2
:1042E000B802002010B50348006810B1014800680A
:1042F000804710BD3C0200202DE9FF4F87B00446E7
:104300009046DDE91BA5DDE91496179F0020039078
:1043100087480078002805DD47F24A1028800BB056
:10432000BDE8F08F1CB947F2AD102880F7E7B8F16F
:10433000000F03D147F24F102880F0E71EB946F670
:104340002F602880EBE77B480068874203D246F65F
:1043500030602880E3E71698B84203D346F6316010
:104360002880DCE7B9F1400F03D346F273202880A0
:10437000D5E7B9F1000F06D16F48844203D046F269
:1043800073202880CBE7B9F13F0F06D16B488442F8
:1043900003D046F273202880C1E7204602F0B6FB26
:1043A000002028800AF0010090B10AF0020078B1E4
:1043B00005960020069008E0002105980160059808
:1043C000001D05900698401C06900698B842F3D34D
:1043D000169806EB80000490CDE9007A32464046FC
:1043E000049B0A9900F06EFB0590C4F828800A9897
:1043F000E0620898206284F837900598206004985D
:10440000A06019986065199818B94D480068A065B2
:1044100001E01998A0651A9860606662A763A4F825
:104420003CA04FF0000B08E0002104F17C0040F8B4
:104430002B100BF1010000F0FF0BBBF1000FF3D0CC
:1044400004F16400189901F0C3FB204600F082F8E3
:1044500000BF00BF00BFFBF72BFF039000BF00BFF2
:1044600038480078401C3749087000BF00BF0398E7
:10447000FBF722FF00BF00BF00BF94F8370001F038
:10448000C3FD204601F0DEFE204602F0F5FA2E487C
:104490000088401C2C4908802C48007801282DD029
:1044A00000BF00BF00BFFBF703FF039000BF00BFCA
:1044B00024480078401E2349087008460078A0B9B7
:1044C00023480088002809DD00BF00BF0398FBF7E0
:1044D000F3FE00BF00BF01F023FF0DE000BF00BFEF
:1044E0000398FBF7E9FE00BF06E000BF00BF03989A
:1044F000FBF7E2FE00BF00BF00BF10E700BF00BF38
:1045000000BFFBF7D5FE039000BF00BF0D48007849
:10451000401E0C49087000BF00BF0398FBF7CCFE9B
:1045200000BF00BF00BFFFF78FFC00BFF7E6000031
:104530004C02002064E2000838D3002074D200202E
:104540009802002094020020C80200204D020020A2
:104550005802002010B504460348006818B12046F0
:1045600001490968884710BD2C02002070B5044637
:104570000D46002667480078002803DD47F24E10FC
:10458000288070BD6448844203D147F24C102880D3
:10459000F7E76248844203D147F24D102880F0E7E4
:1045A0007CB900BF00BFFBF783FE064600BF00BF1B
:1045B0005B48046800BF00BF3046FBF77DFE00BFCC
:1045C00000BF00BF00BF00BFFBF772FE064600BF82
:1045D00000BF54480078401C5249087000BF00BF1B
:1045E0003046FBF769FE00BF00BF00BF94F83600FD
:1045F00008282DD2DFE800F004090E10080A0F1178
:10460000204601F05FFE54E053E000BF204603F077
:104610009DF84EE000BF00BF00BF204603F096F8B3
:1046200094F83400082810D2DFE800F004070508E9
:10463000090A0B0600BF00BF08E000BF00BF00BFB3
:1046400000BF204601F011FC00E000BF00BF30E0D9
:1046500000BF00BF00BFFBF72BFE064600BF00BF38
:1046600030480078401E2F49087008460078A0B9ED
:104670002D480088002809DD00BF00BF3046FBF749
:104680001BFE00BF00BF01F04BFE0DE000BF00BFEE
:104690003046FBF711FE00BF06E000BF00BF30460A
:1046A000FBF70AFE00BF00BF00BF46F62D60288062
:1046B00067E700BF04F1640001F068FA204600F0EB
:1046C00037F8204602F0F0F918480088401E1749D4
:1046D0000880204602F01AFAFF2084F8360000BF56
:1046E00000BF00BFFBF7E4FD064600BF00BF0D485A
:1046F0000078401E0B49087000BF00BF3046FBF732
:10470000DBFD00BF00BF00BF00202880FFF79CFB3F
:1047100000BF36E74C02002074D2002038D30020BE
:10472000EC0200209402002058020020C802002061
:1047300010B504460348006818B1204601490968CD
:10474000884710BD300200207FB504460D46002684
:1047500000BF00BFFBF7ACFD064600BF00BF1CB1A9
:104760001548006884420AD100BF00BF3046FBF7FD
:10477000A3FD00BF00BF47F2571028807FBD00BFD8
:1047800000BF3046FBF798FD00BF00BF0B48007824
:1047900000280BDD002000900190034602462146D0
:1047A000CDE90205064800F061FFE7E7294620460B
:1047B00002F024FB00BFE1E7EC0200204C020020E5
:1047C0005452455310B504460348006818B12046BA
:1047D00001490968884710BD340200202DE9F047DF
:1047E00080460E4614461D464FF000097D4800786D
:1047F000002805DD46F2AE1028800020BDE8F087D5
:104800001EB1B6F5004F02D100E000BF04E045F64E
:10481000256028800020F1E700BF0CB10020206057
:1048200000BF00BFFBF744FD814600BF00BF6E48DC
:104830000068406CA8B36C480068406C401E6A4930
:104840000968486468480068476C1CB1664800689D
:10485000006C2060FCF786FD63490968096C401A0A
:1048600061490968C1F8A4005F480068D0F8A80051
:104870005D490968D1F8A410884207D25A480068F7
:10488000D0F8A40058490968C1F8A80000BF00BFCB
:104890004846FBF711FD00BF00BF002028803846C6
:1048A000ACE7FFE706F4004058B100BF00BF484640
:1048B000FBF702FD00BF00BF46F2B01028800020C9
:1048C0009CE74A48007800280BDD00BF00BF48463F
:1048D000FBF7F2FC00BF00BF46F6635028800020C3
:1048E0008CE700BF41480078401C4049087000BF79
:1048F00000BF4846FBF7E0FC00BF00BF00BF4346D7
:1049000007220021084601F0F5F900BF00BF00BFF3
:10491000FBF7CEFC814600BF00BF34480078401E44
:104920003249087000BF00BF4846FBF7C5FC00BF16
:1049300000BF00BFFFF788FA00BF00BFFBF7B8FC5D
:10494000814600BF00BF2848006890F8350020B1BC
:10495000012826D0032834D12CE0FCB1224800687D
:10496000006C2060FCF7FEFC1F490968096C401AC6
:104970001D490968C1F8A4001B480068D0F8A800C8
:1049800019490968D1F8A410884207D2164800686E
:10499000D0F8A40014490968C1F8A80000202880B4
:1049A00013E01CB110480068006C206046F2A910AA
:1049B00028800AE00CB10020206047F2D92028802E
:1049C00003E046F62E60288000BF00BF064800685E
:1049D000476C00BF00BF4846FBF76EFC00BF00BF3E
:1049E00038460BE74C020020EC0200209402002025
:1049F0002DE9F04705460E4617461C464FF0000AC3
:104A00002E480078002804DD47F259102080BDE8C8
:104A1000F0871EB946F2D5202080F8E71FB946F28C
:104A2000D5202080F3E700BF00BFFBF741FC8246A2
:104A300000BF00BF0DB922480568286868B900BFEB
:104A400000BF5046FBF738FC00BF00BF00203060BD
:104A5000386047F252102080D9E795F83C0000F00A
:104A6000010068B900BF00BF5046FBF725FC00BF3E
:104A700000BF00203060386047F254102080C6E745
:104A800000BF00BF5046FBF717FC00BF00BF4FF050
:104A90000008D5F8249003E009F1040908F10108A1
:104AA000D9F800000028F7D0C6F80080A86BA0EB6A
:104AB000080038600020208000BFA8E74C020020DA
:104AC000EC020020F0B50446DDE9055602EB850056
:104AD00020F007004FF0000C071F3846C7F800C051
:104AE0004FF4805C071F3846C7F800C04FF0150C24
:104AF000071F3846C7F800C04FF0140C071F384690
:104B0000C7F800C04FF0130C071F3846C7F800C0A5
:104B10004FF0120C071F3846C7F800C04FF0110CB9
:104B2000071F3846C7F800C04FF0100C071F384663
:104B3000C7F800C04FF0090C071F3846C7F800C07F
:104B40004FF0080C071F3846C7F800C04FF0070C9D
:104B5000071F3846C7F800C04FF0060C071F38463D
:104B6000C7F800C04FF0050C071F3846C7F800C053
:104B70004FF0040C071F3846C7F800C04FF0030C75
:104B8000071F3846C7F800C04FF0020C071F384611
:104B9000C7F800C04FF0010C071F3846C7F800C027
:104BA0004FF0000C071F3846C7F800C04FF0807C5C
:104BB000071F3846C7F800C0071F38463C60DFF8BB
:104BC0005CC1071F3846C7F800C04FF0123C071FF2
:104BD0003846C7F800C04FF0033C071F3846C7F8F7
:104BE00000C04FF0023C071F3846C7F800C0071F3F
:104BF00038463B60071F384639604FF0310C071FBD
:104C00003846C7F800C04FF0300C071F3846C7F8C9
:104C100000C04FF0290C071F3846C7F800C04FF0FE
:104C2000280C071F3846C7F800C04FF0270C071F95
:104C30003846C7F800C04FF0260C071F3846C7F8A3
:104C400000C04FF0250C071F3846C7F800C04FF0D2
:104C5000240C071F3846C7F800C04FF0230C071F6D
:104C60003846C7F800C04FF0220C071F3846C7F877
:104C700000C04FF0210C071F3846C7F800C04FF0A6
:104C8000200C071F3846C7F800C04FF0190C071F4B
:104C90003846C7F800C04FF0180C071F3846C7F851
:104CA00000C04FF0170C071F3846C7F800C04FF080
:104CB000160C071F3846C7F800C04FF0113C071FFD
:104CC0003846C7F800C04FF0103C071F3846C7F8F9
:104CD00000C04FF0093C071F3846C7F800C04FF02E
:104CE000083C071F3846C7F800C04FF0073C071FB5
:104CF0003846C7F800C04FF0063C071F3846C7F8D3
:104D000000C04FF0053C071F3846C7F800C04FF001
:104D1000043C071F3846C7F800C0F0BD3D6F0008CF
:104D20007FB505460C461248854203D147F25B1019
:104D300020807FBD0F48854203D147F25C10208060
:104D4000F7E70D48007800280BDD00200090019067
:104D5000034602462946CDE90204084800F086FCD5
:104D6000E7E72146284602F057FB00BFE1E70000D5
:104D700074D2002038D300204C02002054535553E5
:104D800010B51D48006810B11B4800688047FCF74B
:104D9000E9FA04461948006819490968884215D09B
:104DA00016480068D0F89800201A14490968C1F81C
:104DB000940012480068D0F89C0010490968D1F8A6
:104DC000941008440D490968C1F89C000C4800681B
:104DD000C0F8984009480068D0F8B400094909684B
:104DE000884205D20748006804490968C1F8B40040
:104DF00000200449086010BD40020020EC020020A1
:104E0000F0020020900200202DE9F04105460E46F8
:104E1000144600273F480078002804DD47F275203B
:104E20002080BDE8F0813C480078002803DD46F68C
:104E300063502080F5E736B1022E05D0042E0AD04B
:104E4000082E09D101E000BF00BF1DB947F27E2046
:104E50002080E6E704E003E045F625602080E0E7F7
:104E600000BF00BF00BF00BFFBF722FA074600BF2C
:104E700000BF29480078401C2749087000BF00BFC8
:104E80003846FBF719FA00BF00BF00BF01202349D5
:104E9000096881F836002346324629461F480068D3
:104EA00002F076FB2088A8B100BF00BF00BFFBF76F
:104EB000FFF9074600BF00BF17480078401E16499B
:104EC000087000BF00BF3846FBF7F6F900BF00BF0F
:104ED00000BFA6E71148006801F0F4F900BF00BF69
:104EE00000BFFBF7E5F9074600BF00BF0A4800789E
:104EF000401E0949087000BF00BF3846FBF7DCF9C7
:104F000000BF00BF00BFFEF79FFF0020208000BF52
:104F100087E700004C02002094020020EC020020F1
:104F20002DE9FF5F05460E4617469846DDE90EA4BB
:104F30000020009072480078002804DD47F27520B8
:104F40002080BDE8FF9F6F480078002803DD46F60B
:104F500063502080F5E70AF00E0BBBF1000F09D07B
:104F6000BBF1020F07D0BBF1040F10D0BBF1080F4B
:104F70000ED101E000BF00BFB8F1000F06D12FB97C
:104F800026B91DB947F27E202080DAE704E003E06D
:104F900045F625602080D4E700BF2AF01E0008B146
:104FA000012000E0002003900398012803D145F67A
:104FB00025602080C5E7CAF3001002900298C0B9AE
:104FC000B8F57A7F03D347F27B202080B9E73B2FE7
:104FD00003DD47F27A202080B3E73B2E03DD47F262
:104FE00079202080ADE7632D12DD47F27820208004
:104FF000A7E742F20F70864203DD47F27920208056
:105000009FE7B5F57A7F03DB47F27820208098E7A9
:105010003D48D0F800904FF4FA70B0FBF9F04044EE
:1050200000FB09F04FF47A71B0FBF1F14FF46160CD
:105030006843C6EB061200EB8200384400FB0910FF
:1050400001900198002856D000BF00BF00BFFBF7B9
:105050002FF9009000BF00BF2A480078401C294962
:10506000087000BF00BF0098FBF726F900BF00BF23
:1050700000BF01202549096881F8360023465A46B9
:1050800022480199006802F083FA2088A8B100BF85
:1050900000BF00BFFBF70CF9009000BF00BF19482C
:1050A0000078401E1749087000BF00BF0098FBF74A
:1050B00003F900BF00BF00BF43E71448006801F0D8
:1050C00001F900BF00BF00BFFBF7F2F8009000BF7E
:1050D00000BF0C480078401E0A49087000BF00BF9E
:1050E0000098FBF7E9F800BF00BF00BFFEF7ACFE79
:1050F0000020208002E047F27E20208000BF20E7D1
:105100004C0200209402002068E20008EC0200201B
:1051100010B586B000F01EF8FCF724F9044605A887
:1051200000210091CDE9011403900748007800EBBD
:105130004000064A02EB800100231A46044800F0B2
:1051400095FA06B010BD00007A02002008D40020B5
:105150005449434B10B50348006810B1014800683A
:10516000804710BD44020020244825482548264891
:1051700026482748274828482848294829482A48AF
:105180002A482B482B482C482C482D482D482E487F
:105190002E482F482F48304830483148314832484F
:1051A000324833483348344834483548354836481F
:1051B00036483748374838483848394839483A48EF
:1051C0003A483B483B483C483C483D483D483E48BF
:1051D0003E483F483F48404840484148414842488F
:1051E000424843484348444844484548454846485F
:1051F00046484748474800BF70470000ACE20008F7
:1052000014E40008AEE20008AFE20008B0E20008D3
:10521000B4E20008B8E20008B5E20008E0E20008E5
:10522000E1E20008E2E20008E4E20008E6E2000849
:10523000E8E20008EAE20008ECE200080CE30008FB
:105240000EE3000810E3000812E3000814E300086E
:1052500016E3000818E3000844E3000845E30008EB
:1052600046E3000848E300084AE300084BE300086F
:105270004CE300084EE3000850E3000852E3000846
:1052800054E3000856E3000858E3000888E30008E8
:1052900089E300088AE300088BE300088CE3000838
:1052A0008EE3000890E30008B8E30008B9E30008C3
:1052B000BAE30008BBE30008BCE30008BEE3000853
:1052C000C0E30008C4E30008C5E30008C6E3000823
:1052D000C7E30008C8E30008C9E30008CAE3000800
:1052E000CBE30008CCE30008CEE30008CFE30008DE
:1052F000D0E30008D2E30008D4E30008D5E30008B7
:10530000D8E300080CE400080DE400080EE40008EF
:1053100010E4000812E400080021034A1160034A67
:1053200011800180704700006402002068020020A4
:105330002DE9F04F85B00446894692469B46DDF83C
:1053400038800020009000BF00BFFAF7B1FF009046
:1053500000BF00BFBAF1000F0AD0BAF1010F0DD0A3
:10536000BAF5004F05D06FF40040504460B906E034
:1053700000BF206A40EA0900206214E000BF206AF2
:1053800020EA090020620EE000BF00BF0098FAF793
:1053900093FF00BF00BF45F62560A8F8000000207D
:1053A00005B0BDE8F08F00BFC4F824B004F10800D8
:1053B00001900198008958B900BF00BF0098FAF722
:1053C0007BFF00BF00BF0020A8F80000206AE7E7CD
:1053D00000BF61480078401C5F49087000BF00BFF3
:1053E0000098FAF769FF00BF00BF00BF0198076887
:1053F000BD687FE07868029095F8880000F00F00A3
:1054000003900398012821D002282ED0042802D02E
:10541000082836D10EE0206AD5F8801000EA01068F
:10542000D5F88000B04204D15A463146284600F0F3
:1054300097F859E0206AD5F8801000EA010626B1F5
:105440005A463146284600F08BF84DE0D5F88000EA
:10545000216A20EA0106D5F88000B04204D15A46FC
:105460003146284600F07CF83EE0D5F88000216AFD
:1054700020EA010626B15A463146284600F070F867
:1054800032E000BF00BF00BFFAF712FF009000BF7C
:1054900000BF31480078401E2F4908700846007848
:1054A000A0B92E480088002809DD00BF00BF009881
:1054B000FAF702FF00BF00BF00F032FF0DE000BFAF
:1054C00000BF0098FAF7F8FE00BF06E000BF00BF7B
:1054D0000098FAF7F1FE00BF00BF00BF43F6FF20BF
:1054E000A8F8000000205BE700BF029F0FB1BD6875
:1054F00000E00025002D7FF47DAF00BF00BF00BF9E
:10550000FAF7D6FE009000BF00BF13480078401E97
:105510001149087000BF00BF0098FAF7CDFE00BF28
:1055200000BF00BF0AF4004008B9FEF78DFC00BFC1
:1055300000BFFAF7BDFE009000BF00BF206A0490D4
:1055400000BF00BF0098FAF7B7FE00BF00BF002001
:10555000A8F80000049823E79402002058020020D5
:1055600070B504460E46154634342665002060703A
:105570002070E560A078343C082816D2DFE800F0FF
:10558000040508090706101100BF00BF00BF0DE0A9
:1055900000BF204601F024FC002084F8360005E01E
:1055A00000BF042084F8360000E000BF00BF2046A2
:1055B00000F05BFC70BD0000002400BF19E000BFDC
:1055C00000BFFAF775FE044600BF00BF0948006837
:1055D000401C0849086008480068401C06490860EB
:1055E00000BF00BF2046FAF767FE00BF00BFFEF70E
:1055F000C3FAE4E748020020AC02002010B58AB0EC
:10560000044600200E4908600B2000210591CDE9D9
:105610000704069108460B4909680B4A12680B4BB0
:105620001B68CDE90132CDE903103F200023084A71
:1056300008A100900C48FEF75FFE0AB010BD000004
:105640004802002010E200080CE2000808E200080E
:10565000B955000875432F4F532D494949204964D6
:105660006C65205461736B0074D200202DE9F84FF3
:1056700004460D4616461F46DDE90BABDDF82890C3
:10568000DDF834800020009000BF00BFFAF710FE64
:10569000009000BF00BF2B4800882B490988884232
:1056A0003EDA28480088401C2649088027480088A0
:1056B0000988884203DA234800882449088024485E
:1056C0000068046022480068856021480068C66060
:1056D0001F48006807821E480068C0F814901C48E4
:1056E0000068A0F818A01A480068C0F81CB0184854
:1056F000006840681649086001201649088116486C
:1057000008604860002000F07FFC1448007818B161
:1057100012480078124908700020A8F8000008E03C
:1057200010480088401C0F49088044F25360A8F8D4
:10573000000000BF00BF0098FAF7BEFD00BF00BF29
:10574000BDE8F88F580200201CE200085A02002031
:105750005002002008D4002038D300207A02002014
:105760007C0200205C0200203EB5594800680068B9
:10577000584A811A904279D00FDC574908440028D2
:105780003ED056490844A8B155490844002860D085
:105790005449084400286AD13FE05348084400288F
:1057A00050D052490844002862D05149084400288A
:1057B000F1D110E002A8464D00902D68EB69444DF0
:1057C0002D682A8B424D2D686969414D2D68A86866
:1057D000FFF7AEFD7AE002A93D480068C0693C4D84
:1057E000CDE900012D682B8B394D2D682A8A384D63
:1057F0002D68E968364D2D68A86800F035FC65E035
:10580000334B1B68DA69324B1B68198B304B1B68B2
:10581000986802AB00F04EFE58E002A92C480068E0
:10582000C0692B4DCDE900012D682B8B284D2D68CB
:105830002A8A274D2D68E968254D2D68A86801F052
:10584000C9F943E022490968886802A901F0D6FA3B
:105850003CE01F4B1B68DA691D4B1B68198B1C4B06
:105860001B68986802AB01F075FB2FE007E02CE0A5
:1058700017490968886802A901F0CEFD26E01D4994
:10588000097801EB41011C4A02EB810000F09EFD0A
:105890000F48006802AB0021C269184801F05AFBAA
:1058A00017480068401E164908600846006858B945
:1058B000144800680860FBF755FD044602AB224619
:1058C0000021114801F046FB00E000BF00BF3EBDD3
:1058D000540200205449434BADBAB2BE0DF90BFA45
:1058E000F2F8F7FF0006F6FF00F7FDF700FFEFFF05
:1058F00003FE0FFE7C02002008D40020CCD700203D
:10590000E8020020E402002090D80020002700BF19
:105910004CE0002648E000BF00BFFAF7C9FC07468C
:1059200000BF00BF2248008888B9002021490881B3
:105930000860486000F07AFB00BF00BF3846FAF705
:10594000BBFC00BF00BFFEF77FFA01262CE000BFC2
:1059500000BF3846FAF7B0FC00BF00BFFBF702FDFE
:105960000546FFF701FFFBF7FDFC441B12480068EA
:10597000A04201D21048046000BF00BFFAF798FCB3
:10598000074600BF00BF0D48006840680B4908602B
:1059900007480088401E0649088000BF00BF3846FF
:1059A000FAF78AFC00BF00BF002EB4D0B1E70000B8
:1059B0005802002008D40020600200205402002079
:1059C000F0B589B0054600203149088031480068AB
:1059D00020B944F25260288009B0F0BD2E480088FA
:1059E000022803DA44F254602880F5E700202B49AE
:1059F0000860284804682646203600270CE028481E
:105A000020600020A060E0602082606120836660EA
:105A100020342036781C87B21F4800888742EEDB8E
:105A2000203C1C48066866601E4806601E480660EA
:105A300000201E4908801E4908801E48006818B9C9
:105A400044F255602880C7E71B4800681B49096875
:105A5000884203D244F256602880BDE7032000212B
:105A60000591CDE90705069113480068144A1268AC
:105A7000104B1B68CDE90301CDE9013200910B46C3
:105A8000104A11A11748FEF737FC00BFA4E7000039
:105A90005C02002018E200081CE2000860020020FE
:105AA0004E4F4E4550020020540200205802002064
:105AB0005A02002024E200082CE2000864E20008F8
:105AC00028E200080D59000875432F4F532D49490E
:105AD0004920495352205175657565205461736B97
